:020000040000FA
:100000005328A301A200FF30A207031CA307031C6F
:100010004E280330A100DF300F200328A101E83E65
:10002000A000A109FC30031C1828A00703181528FC
:10003000A0076400A10F152820181E28A01C222844
:10004000000022280800A20001302828A200053064
:10005000A80023082102031D2F28220820020430B3
:1000600003180130031902302805031DFF304E2804
:100070001030A800A101A001A70CA60C031C462863
:100080002208A00723080318230FA107A10CA00C26
:10009000A50CA40CA80B3C2824084E28831303139A
:1000A0008312640008008316850186018030870072
:1000B0008312BA01BB010A30BE000530BC008601C4
:1000C00087010930BD00813086007B3087003C0805
:1000D0000120823086000D3087003C0801208430EA
:1000E0008600603087003C080120883086000D3093
:1000F00087003C080120903086007B3087003C0858
:1001000001206400871F852863280130BF003E0856
:10011000A600A7010830A200A3013820B8002508D6
:10012000B9003F08A000A1013908A3003808232026
:10013000031DBA28813086007B3087003C080120EF
:10014000823086000D3087003C0801208430860014
:10015000603087003C080120883086000D30870021
:100160003C080120903086007B3087003C0801204D
:10017000BF0F87280130BF00640003303F0203181F
:1001800011290130C000640040083E02031CE82829
:10019000013086007B3087003C0801200230860059
:1001A0000D3087003C080120043086006030870055
:1001B0003C080120083086000D3087003C080120F3
:1001C000103086007B3087003C080120C00FC32818
:1001D0000130C000640040083E02031C0F2981303A
:1001E00086007B3087003C080120823086000D307D
:1001F00087003C08012084308600603087003C087E
:100200000120883086000D3087003C0801209030A6
:1002100086007B3087003C080120C00FEA28BF0F12
:10022000BC280130C000640040083E02031C38298D
:10023000013086007B3087003C08012002308600B8
:100240000D3087003C0801200430860060308700B4
:100250003C080120083086000D3087003C08012052
:10026000103086007B3087003C080120C00F132926
:100270000130C0003E08A600A7010330A200A30180
:100280003820B8002508B9004008A000A1013908AD
:10029000A30038082320031D6D29413086007B30E0
:1002A00087003C080120423086000D3087003C0862
:1002B000012044308600603087003C08012048302F
:1002C00086000D3087003C080120503086007B30CE
:1002D00087003C080120C00F3A293D088500013005
:1002E000BF0064003F083E02031C9B2921308600AA
:1002F0001E3087003C080120223086006D308700C8
:100300003C08012024308600703087003C08012022
:10031000283086006D3087003C0801203030860090
:100320006B3087003C0801201930BA070318BB0A5C
:100330001F22BF0F71290130BF0064003F083E0239
:10034000031CC729213086007D3087003C0801202E
:10035000223086000B3087003C08012024308600C4
:10036000603087003C080120283086005B30870021
:100370003C08012030308600573087003C080120BF
:100380001930BA070318BB0A1F22BF0F9D2901307D
:10039000BF0064003F083E02031CF22921308600A2
:1003A0007F3087003C0801202230860057308700CC
:1003B0003C0801202430860087013C0801202830B9
:1003C0008600773087003C080120303086007F307F
:1003D00087003C0801201930BA070318BB0A1F2206
:1003E000BF0FC9290130BF0064003F083E02031C53
:1003F0001E2A213086007D3087003C0801202230F3
:1004000086000B3087003C080120243086006030D5
:1004100087003C080120283086005B3087003C08BC
:10042000012030308600573087003C080120193009
:10043000BA070318BB0A1F22BF0FF4296F29E8303F
:10044000A0000330A1003B08A3003A082620031DAA
:100450002F2ABD03BE033D088500BA01BB0164001D
:100460003D08003C031D392A0930BD000A30BE009A
:080470006328080063003A2A2A
:02400E00753FFC
:00000001FF
