:020000040000FA
:100000004E28A301A200FF30A207031CA307031C74
:1000100049280330A100DF300F200328A101E83E6A
:10002000A000A109FC30031C1828A00703181528FC
:10003000A0076400A10F152820181E28A01C222844
:10004000000022280800013EA7000A30A200A301F8
:100050002D20A70B282824080800A501A401103092
:10006000A600210DA40DA50D2208A4022308031C3F
:10007000230FA502031843282208A4072308031806
:10008000230FA5070310A00DA10DA60B31282008F2
:100090004928831303138312640008008316860122
:1000A000831207309F003230BB006400051C5928C2
:1000B0007D206400851C5D2887206400851F6128E1
:1000C000BC016400851992283C08A000A101003001
:1000D0002320B800B901E030380786003B08012032
:1000E0003C08A000A10101302320B800B901D030A4
:1000F000380786003B08012055283B080120BC0A30
:1001000064003C08643C031D8628BC0108003B08D1
:10011000012064003C08003C031D90286430BC00B2
:10012000BC030800640085199228BA0164000A30F3
:100130003A020318B8286400051955283C08A000A5
:10014000A10100302320B800B901E0303807860053
:100150003B0801203C08A000A10101302320B80089
:10016000B901D030380786003B080120BA0F962825
:10017000BC0A64003C08643C031DBF28BC019228F3
:040180006300C02830
:02400E00653F0C
:00000001FF
