:020000040000FA
:10000000B20117290408A7008613051205128316EA
:10001000861305120512F030850583122708B218E1
:100020002E283A30A100FC30D9203330A6004320DE
:100030001030A1006830D92043206430D82022300D
:10004000A600432028302D200C302D2001302D20FB
:1000500006302D20B21427082E283214A600321C98
:100060003C280512033C031C412841200730A10015
:10007000D030D920031408003214FE3C0319122991
:100080000516A60E321C32108617F030850526089C
:100090000F3985048613A60E321843283230D82033
:1000A00003140800B31329080319B3170530A80077
:1000B0002730A300103068200330A300E830682008
:1000C000A30164306820A3010A30682024086F2847
:1000D000A2002508A1002408A000F1202008A0000B
:1000E000A8030319B3132908031979282802031850
:1000F00008002008031DB313B31B0800303E0D2970
:10010000A300360884008417340980058413A308EB
:1001100003191229F030A50022088038A400F0301D
:10012000A5030319A5000319A3030319122998288D
:10013000A820030120183408A21F3408A2080319BC
:100140000301A40FA52880068C28A62800008F286C
:10015000210820040319A00A8030201AA1062019C2
:10016000A106A018A106210DA00DA10D122983162C
:100170001C141A0883169B0A1229030183169A007D
:100180001C1555309D00AA309D009C149C18C62853
:100190001C119B0A1229A301A200FF30A207031C15
:1001A000A307031C12290330A100DF30D920CD287A
:1001B000A101E83EA000A109FC30031CE228A00731
:1001C0000318DF28A0076400A10FDF282018E82803
:1001D000A01CEC280000EC2808000404031DFF30DC
:1001E0001229A501A4011030A600210DA40DA50D12
:1001F0002208A4022308031C230FA50203180729C1
:100200002208A40723080318230FA5070310A00D35
:10021000A10DA60BF52820081229840031088A00B8
:100220003008820083130313831264000800033034
:10023000C300FE30032083300320423003206930A6
:100240000320653003206E300320763003206530B4
:1002500003206E30032069300320643003206F30A8
:10026000032083169B018312B720BE008316013042
:100270009B008312B720BF00831602309B008312BD
:10028000B720C000831603309B008312B720C10043
:10029000A72906108316061064008312061A532934
:1002A0000130C20008006400861A59290230C200D9
:1002B00008006400061B5F290330C2000800061412
:1002C000831606108312861083168610640083122C
:1002D000061A6D290430C20008006400861A7329CA
:1002E0000530C20008006400061B79290630C200F0
:1002F00008008614831686108312061183160611D1
:1003000064008312061A87290730C20008006400BF
:10031000861A8D290830C20008006400061B932944
:100320000930C200080006158316061183128611D3
:100330008316861164008312861AA029C201080060
:100340008615831686110A308312CB20492949214C
:100350000B22FE30032001300320A9014208A40033
:10036000A5010230B000B1015220FE3003208730D9
:100370000320583003203D300320FE300320893015
:100380000320A9014308A400A5010230B000B10177
:100390005220640042083E020319CF292B2A49212A
:1003A0000B22FE30032081300320A9014208A40063
:1003B000A5010230B000B1015220640042083F02A2
:1003C0000319E329392A49210B22FE300320823008
:1003D0000320A9014208A400A5010230B000B10128
:1003E00052206400420840020319F729472A492194
:1003F0000B22FE30032083300320A9014208A40011
:10040000A5010230B000B10152206400420841024F
:100410000319EE2A552A0301061EFF30B800030116
:10042000861EFF30BA00380884003A08ED20BA0072
:10043000BB000301061FFF30BC003C083A043B042C
:10044000031D0B2A0530B6008030B4007530A200C1
:100450000A308020080049210B22FE300320813021
:100460000320A9014208A400A5010230B000B10197
:10047000522049210B22FE30032082300320A901A3
:100480004208A400A5010230B000B1015220492168
:100490000B22FE30032083300320A9014208A40070
:1004A000A5010230B000B1015220C3036400013045
:1004B0004302031C882AFE300320C030032043304F
:1004C00003206C3003206130032076300320653038
:1004D000032020300320693003206E300320633076
:1004E00003206F3003207230032072300320653008
:1004F0000320633003207430032061300320053073
:10050000B6008030B4007330A2000A308020A729E2
:10051000FE300320C0300320413003206C30032024
:1005200061300320723003206D30032061300320DE
:100530002030032061300320633003207430032017
:1005400069300320763003206130032064300320BB
:1005500061300320FE30032089300320A9014308C5
:10056000A400A5010230B000B1015220B72A053025
:10057000B6008030B4007B30A200053080207D3092
:10058000A200053080206400851EED2A0330C300E0
:10059000FE300320C0300320413003206C300320A4
:1005A00061300320723003206D300320613003205E
:1005B000203003206130032070300320613003209D
:1005C0006730032061300320643003206130032052
:1005D0002030032020300320A729B72AFE30032033
:1005E000C0300320433003206C30032061300320EF
:1005F0007630032065300320203003206130032053
:1006000063300320653003207030032074300320F2
:100610006130032064300320613003200517831606
:1006200005130A308312CB200330C3000530B60017
:100630008030B4007430A2000A3080207630A200EE
:100640000A3080207830A2003230802006148316D1
:1006500006108312861483168610831206158316DD
:100660000611831286118316861164008312061BFD
:100670003B2B0B22672B6400061A662B0B220513FB
:1006800083160513FE30831203200130032043300C
:100690000320613003206E3003206430032061307A
:1006A0000320643003206F300320203003206330A8
:1006B0000320653003207230032072300320613044
:1006C0000320643003206F300320A729262BFE303F
:1006D00003200130032044300320693003206730B9
:1006E000032069300320743003206530032020305C
:1006F00003206E3003207630032061300320203049
:100700000320633003206C300320613003207630F7
:1007100003206530032049210B2283169B0183129D
:100720004208BE20FE300320C0300320A901420849
:10073000A400A5010230B000B101522049210B22D2
:10074000831601309B0083124208BE20FE30032036
:10075000C1300320A9014208A400A5010230B00065
:10076000B101522049210B22831602309B008312D3
:100770004208BE20FE300320C2300320A9014208F7
:10078000A400A5010230B000B101522049210B2282
:10079000831603309B0083124208BE20FE300320E4
:1007A000C3300320A9014208A400A5010230B00013
:1007B000B10152200530B6008030B4007630A2007E
:1007C0000A3080207430A2000A308020FE300320DE
:1007D00002300320433003206C30032061300320BB
:1007E0007630032065300320203003206930032059
:1007F0006E30032067300320723003206530032001
:100800007330032061300320643003206130032003
:10081000203003200513831605138312312963004A
:020820000F2C9B
:02400E00DC3F95
:084200000100020003000400AC
:00000001FF
